S012000047726170685F52544F532E7372656379
S31502000000000406226712000239100002771200026B
S3150200001077120002771200027712000277120002AC
S315020000200000000000000000000000001D040002A5
S315020000307712000200000000350400029D0400024F
S3150200004080B56F4686B0059044F21841C0F2002191
S315020000500868496804910390BDF80C0010B9FFE7DF
S31502000060FFE7FEE7002007F80D0CFFE700F02CF88B
S3150200007000200190FFE70198BDF80C10884210D2CB
S31502000080FFE70498019930F811000090BDF80000CE
S3150200009017F80D1C00F043F8FFE7019801300190B4
S315020000A0E9E700F069F817F80D0C20B9FFE701201F
S315020000B007F80D0C03E0002007F80D0CFFE74FF4DC
S315020000C0FA7002F019FCD1E784B000200090EFF339
S315020000D0108001900198009001200390039880F30C
S315020000E0108840F6F810C2F20620006848B9FFE709
S315020000F040F61451C4F240010020087040200870F6
S31502000100FFE740F6F811C2F20621086801300860DE
S3150200011000980290029880F3108804B0704783B06A
S31502000120ADF80A008DF80910BDF80A206FF03F01FC
S3150200013001EA9200D2B200EB820040F60002C4F25B
S31502000140400280580190019843F6FE73CFF6FE7383
S31502000150184001909DF80900019B184300900098F1
S3150200016040F00400BDF80A3001EA9301DBB201EB6C
S315020001708301885003B0704784B000200090EFF3EB
S31502000180108001900198009001200390039880F35B
S31502000190108840F6F810C2F20620006840B1FFE768
S315020001A040F6F811C2F20621086801380860FFE736
S315020001B040F6F810C2F20620006848B9FFE740F69A
S315020001C01451C4F240010020087080200870FFE735
S315020001D000980290029880F3108804B0704780B5A8
S315020001E06F4682B007F8010C17F8010C02280BD1F2
S315020001F0FFE740F29440C2F2062044F2A821C0F280
S31502000200002100F0EBFAFFE702B080BD80B56F4631
S3150200021084B040F2A441C2F20621086801300860A7
S3150200022040F23040C2F206206946886040F66840D5
S31502000230C2F2062048600120086040F28120C0F226
S31502000240002043F6ED41C0F2002143F62C23C0F212
S315020002500023802202F004F8014640F29040C2F2E6
S3150200026006200160006848B9FFE740F29040C2F2FA
S3150200027006200068002100F014F8FFE704B080BDF4
S3150200028080B56F4682B0019000F011F80198FFF731
S31502000290D7FE02B080BD704780B56F46FFF7FBFF01
S315020002A080BD82B00190009100BE02B0704780B559
S315020002B06F4682B040F29C40C2F2062000684FF0C0
S315020002C0FF3101F051FE01900198012809D0FFE7A4
S315020002D040F29C40C2F2062000680021FFF7E1FFCF
S315020002E0FFE740F2A040C2F206200078C007C0BB7A
S315020002F0FFE740F2A041C2F2062101200870FFF793
S31502000300CBFF40F2A441C2F2062108680138086018
S31502000310FFE740F2A440C2F20620006800B3FFE7FE
S3150200032040F29C40C2F206200068002319461A4693
S3150200033001F018FB01900198012809D0FFE740F26D
S315020003409C40C2F2062000680021FFF7AAFFFFE7E1
S3150200035040F2A441C2F20621086801380860D8E7D3
S31502000360FFE702B080BD80B56F4682B000200190E3
S3150200037040F2A441C2F20621086040F2A041C2F254
S315020003800621087040F2A842C2F206224FF480709B
S31502000390012101F0ACFA014640F29C40C2F206206D
S315020003A00160006848B9FFE740F29C40C2F20620AD
S315020003B000680021FFF775FFFFE7FFF727FF02F04E
S315020003C04DFB002002B080BD83B0029001910092E5
S315020003D0029940F2F040C2F206200860019940F20A
S315020003E05050C2F20620086000998020086003B0CF
S315020003F0704783B0029001910092029940F25070C8
S31502000400C2F206200860019940F2B070C2F20620DC
S31502000410086000998020086003B070471EF0040F40
S315020004200CBFEFF30880EFF309800149084700008B
S31502000430DD0400020F4B1968EFF309821EF0100F5C
S3150200044008BF22ED108A22E9F04FEFF30B8342F840
S31502000450043D0A604FF0100080F31188BFF34F8FFE
S31502000460BFF36F8F02F087FA4FF0000080F3118816
S3150200047000F002B85C0A0622074801680A6802CA46
S3150200048081F30B88B2E8F04F1EF0100F08BFB2ECF2
S31502000490108A82F3098870475C0A062280B56F4685
S315020004A084B0EFF311800190019800901020039020
S315020004B0039880F3118802F0AEFB40B1FFE74EF6D7
S315020004C00451CEF200014FF080500860FFE7009819
S315020004D00290029880F3118804B080BD80B56F4601
S315020004E084B00390039880690290029810F8020C77
S315020004F007F8090C17F8090C022803D1FFE7FFF7E2
S31502000500BBFF16E017F8090C032801DCFFE70FE032
S3150200051043F65620C0F2002043F6A052C0F2002253
S3150200052043F66133C0F200234FF47E7100F003FDFF
S31502000530FFE704B080BD84B003900291019200935C
S3150200054003980438039003994FF08070086003986B
S3150200055004380390019820F001000399086003987B
S3150200056004380390039940F2A550C0F200200860B7
S315020005700398143803900098039908600398043886
S31502000580039003996FF002000860039820380390E5
S315020005900398043803900298283003990860039858
S315020005A004B0704700BEFFE7FEE780B56F466FF006
S315020005B00100FF2100F010F800F02FF84EF634711A
S315020005C0CEF20001086840F04040086000F036F8BC
S315020005D002F0D1F9002080BD82B08DF807000091AB
S315020005E09DF9070000280AD4FFE7009800019DF94B
S315020005F007104EF20042CEF2000288540BE0009839
S3150200060000019DF8071001F00F014EF61452CEF2CA
S3150200061000028854FFE702B0704780B56F4640F685
S315020006200820C2F20620006844F6D351C1F26201E4
S31502000630A0FB0110800900F0A7F880BD62B6BFF3E7
S315020006406F8FEFF3148C2CF0040C8CF31488BFF329
S315020006506F8F02DFFFE700BEFDE780B56F4684B00D
S31502000660EFF31180029002980190102003900398F4
S3150200067080F3118840F6B010C2F2062001680131FB
S3150200068001600068012820D1FFE7019840F6B41105
S31502000690C2F2062108604EF60450CEF2000000684F
S315020006A0C00508B9FFE70FE043F65620C0F2002066
S315020006B043F67C22C0F2002243F61153C0F2002315
S315020006C040F2A44100F037FCFFE704B080BD80B5DC
S315020006D06F4682B040F6B010C2F20620006808B13A
S315020006E0FFE70FE043F65620C0F2002043F6D17230
S315020006F0C0F2002243F63023C0F2002340F2AD419D
S3150200070000F019FC40F6B010C2F206200168013969
S315020007100160006850B9FFE740F6B410C2F2062045
S3150200072000680190019880F31188FFE702B080BD4E
S3150200073080B56F4682B001900198B8B1FFE7FFE736
S315020007404EF60450CEF2000000684FF20001C0F2ED
S315020007501F01084205D1FFE70121084600F0F3FB1D
S31502000760EEE762B6BFF36F8F72B6FFE702B080BDE7
S3150200077080B56F4672B601F0FBFE0120FFF7D8FF87
S3150200078062B601F081FF80BD80B56F4682B00090EF
S3150200079000980138B0F1807F03D3FFE70120019072
S315020007A019E0009801384EF21401CEF200010860F9
S315020007B04FF0FF300F21FFF70FFF4EF21801CEF276
S315020007C00001002008604EF21002CEF2000207215C
S315020007D011600190FFE7019802B080BD80B56F46B7
S315020007E084B00390029103980190019945F2542036
S315020007F0C5F24F000860029800F003F8002004B02A
S3150200080080BD80B56F4684B00390039800F025F84A
S315020008100398019000F0E1F8002027F8060CFFE7A4
S3150200082037F8060C01990988884212DAFFE701981F
S31502000830416837F8062C01EBC200808851F8321065
S3150200084000F0F6F8FFE737F8060C013027F8060C39
S31502000850E6E700F024F904B080BD80B56F4688B0A3
S3150200086007904EF20000C4F20100049042F200002A
S31502000870C4F22000039000200690FFE7069807992D
S315020008800988884280F0A780FFE700200590FFE7ED
S315020008900598022800F29A80FFE7079840680699B1
S315020008A000EBC1008088059A44F2B421C0F200210F
S315020008B031F81210884240F08480FFE707984068BA
S315020008C0069950F8310000F0F85002900298B0F103
S315020008D0807F05D0FFE70298B0F1106F38D1FFE7AD
S315020008E0049890F84C0C059A0121914008400006A4
S315020008F088B9FFE70120019000F078FC019805997C
S3150200090000FA01F3049A92F84C1C194382F84C1C23
S3150200091000F024FC00E0FFE70398059900EB410094
S3150200092090F840100020B0EBD11F0FD1FFE70398DB
S31502000930059900EB410191F8400040F0800081F8F2
S315020009404000C820012100F0FEFA00E0FFE737E090
S31502000950049890F84C0C059A012191400840C0B2C7
S31502000960012811DBFFE70120009000F03FFC009810
S31502000970059900FA01F3049A92F84C1C994382F8FD
S315020009804C1C00F0EBFB00E0FFE70398059900EB37
S31502000990410090F84000C00901280FDBFFE70398E9
S315020009A0059900EB410191F8400000F07F0081F8C3
S315020009B04000C820012100F0C6FA00E0FFE7FFE789
S315020009C0FFE7FFE705980130059061E7FFE7069824
S315020009D00130069052E708B080BD84B00020009036
S315020009E0EFF3108001900198009001200390039884
S315020009F080F3108840F6F810C2F20620006848B963
S31502000A00FFE740F61451C4F240010020087040206E
S31502000A100870FFE740F6F811C2F2062108680130B5
S31502000A20086000980290029880F3108804B070471C
S31502000A3082B0ADF8060000919DF80200C007E8B149
S31502000A40FFE7BDF806206FF03F0101EA9200D2B23D
S31502000A5000EB820340F60002C4F24002985820F4EA
S31502000A6080309850009820F48030BDF8063001EAB4
S31502000A709301DBB201EB83018850FFE70098BDF8D2
S31502000A8006206FF03F0101EA9201D2B201EB820128
S31502000A9040F60002C4F24002885002B0704784B0A9
S31502000AA000200090EFF31080019001980090012041
S31502000AB00390039880F3108840F6F810C2F20620DD
S31502000AC0006840B1FFE740F6F811C2F20621086855
S31502000AD001380860FFE740F6F810C2F20620006807
S31502000AE048B9FFE740F61451C4F2400100200870ED
S31502000AF080200870FFE700980290029880F3108821
S31502000B0004B0704782B04EF22600C4F201000078AB
S31502000B1001904EF22400C4F20100007800F00F00AA
S31502000B208DF803009DF803008DF802009DF802007F
S31502000B30082814D1FFE7019940F20040C2F20620CC
S31502000B4050F821004AF6AB21CAF6AA21A0FB0110F1
S31502000B50400840F60821C2F2062108605DE09DF8D1
S31502000B600200092814D1FFE7019940F20040C2F2BF
S31502000B70062050F821004AF6AB21CAF6AA21A0FBAC
S31502000B800110800840F60821C2F20621086043E0FF
S31502000B909DF802000A2814D1FFE7019940F20040AD
S31502000BA0C2F2062050F821004AF6AB21CAF6AA2163
S31502000BB0A0FB0110C00840F60821C2F20621086017
S31502000BC029E09DF802000B2814D1FFE7019940F2B3
S31502000BD00040C2F2062050F821004AF6AB21CAF6BE
S31502000BE0AA21A0FB0110000940F60821C2F2062143
S31502000BF008600FE0019940F20040C2F2062050F868
S31502000C0021009DF80210C84040F60821C2F20621D2
S31502000C100860FFE7FFE7FFE7FFE702B0704780B52E
S31502000C206F464EF2FA31C4F201014AF203500880CD
S31502000C3000F03DF800F051F800F06FF84EF2360180
S31502000C40C4F2010100200870FFE74EF23C00C4F234
S31502000C5001000078C00708B9FFE7F6E74EF228015F
S31502000C60C4F2010144F2117008804EF24C01C4F242
S31502000C70010140F2111008804EF22A01C4F201016C
S31502000C8000200870FFE74EF23C00C4F20100007833
S31502000C904009C00708B9FFE7F5E700F07CF84EF215
S31502000CA0FA31C4F201014FF42540088080BD4CF2AE
S31502000CB00411C4F2010101200880FFE74CF204107E
S31502000CC0C4F20100008808B1FFE7F7E74CF2001111
S31502000CD0C4F2010101200880704780B56F4640F2D8
S31502000CE00041C2F2062142F60050C0F231100860FD
S31502000CF041F20020C0F27A0048604FF4004088605A
S31502000D000022CA60086142F60020C1F275504861AD
S31502000D10C8610862FFF7F6FE80BD80B56F464EF6E3
S31502000D200040C4F20100007840B9FFE74EF60140E8
S31502000D30C4F201000078800738B3FFE74EF60040A0
S31502000D40C4F201000078A0B9FFE74EF60040C4F2F3
S31502000D50010001210170C82000F0F5F8FFE74EF608
S31502000D600040C4F201000078012801D0FFE7F6E74F
S31502000D70FFE74EF60141C4F20101002008704EF66B
S31502000D800041C4F20101087004E04FF47A7000F0E9
S31502000D9055F8FFE780BD80B56F4688B04CF21C114E
S31502000DA0C4F20101022008704EF22001C4F20101D0
S31502000DB0019148F69810C9F68A00029008604EF230
S31502000DC02401C4F201010091082008704EF22601A6
S31502000DD0C4F201010591052006900870FFF792FE04
S31502000DE0962003900121049100F0ADF8009B019931
S31502000DF00298002207921A700860FFF783FE039892
S31502000E00049900F0A0F8059906980870FFF77AFE93
S31502000E10079842F20001C4F200014AF201520A8026
S31502000E20BFF35F8F42F20802C4F200021070BFF3F2
S31502000E305F8F4FF42540088008B080BD81B00090D6
S31502000E4001B0704780B56F4684B042F22801C4F201
S31502000E502001002002900870C820012100F073F8DA
S31502000E60029842F22401C4F220010870FFE742F21E
S31502000E702400C4F22000007808B1FFE7F7E742F247
S31502000E802401C4F22001087840F002000870FFE74E
S31502000E9042F22400C4F2200000784008C00708B1DC
S31502000EA0FFE7F5E742F22201C4F2200100200870B2
S31502000EB0FFE742F22200C4F22000007808B1FFE701
S31502000EC0F7E7002007F8010CFFE717F8010C0228E4
S31502000ED022D8FFE717F8012C42F24001C4F22001A2
S31502000EE011F8120000F07F0001F81200FFE717F870
S31502000EF0011C42F24000C4F2200010F8111000203A
S31502000F00B0EBD11F01D0FFE7F1E7FFE717F8010CBD
S31502000F10013007F8010CD8E70120019000F066F9CC
S31502000F2001984EF64C42C4F201020021117000F003
S31502000F3015F904B080BD84B003900291019200932A
S31502000F4000BEFFE7FEE780B56F468CB00B900A91B4
S31502000F50002008900B980A994843079040F608200B
S31502000F60C2F2062000680990099841F20021C0F2F7
S31502000F707A0188421FD3FFE7099844F23F21C0F263
S31502000F800F0108444DF68361C4F21B31A0FB011028
S31502000F90800C069007980699A0FB01010591049022
S31502000FA0059820B1FFE74FF0FF30089002E0049861
S31502000FB00890FFE731E009994CF60020C3F69A3013
S31502000FC0B0FBF1F0029007984FF47A71A0FB010191
S31502000FD001910090019840B9FFE700980299B0FB91
S31502000FE0F1F003900398089016E007980299B0FB77
S31502000FF0F1F0079007984FF47A71A0FB0101019175
S315020010000090019818B9FFE70098089003E04FF0A6
S31502001010FF300890FFE7FFE7FFE7089820B1FFE7F8
S31502001020089800F005F8FFE70CB080BDD4D4D4D4FC
S3150200103001380028FCD1704780B56F4682B04CF269
S315020010400010C4F20000008827F8020C4CF22010AF
S31502001050C4F20000008837F8021C0840ADF804000C
S31502001060002007F8050CFFE717F8050C0F2814DC1B
S31502001070FFE7BDF8040017F8051CC840C00728B1F1
S31502001080FFE717F8050C00F01EF8FFE7FFE717F871
S31502001090050C013007F8050CE6E7BDF804004CF232
S315020010A01011C4F200010880FFE74CF22010C4F2CE
S315020010B000000088BDF804100840000408B1FFE7EC
S315020010C0F3E702B080BD80B56F4682B007F8010C27
S315020010D017F8011C40F6B810C2F2062050F821009B
S315020010E050B1FFE717F8010C40F6B811C2F206211B
S315020010F051F820108847FFE702B080BD82B0602019
S3150200110001900198022803D3FFE701200190FFE72F
S3150200111000200090FFE70098019988421CD2FFE761
S31502001120009944F20840C0F2002030F8110070B174
S31502001130FFE7009A44F20840C0F2002030F812009D
S315020011404CF20031C4F2000141F82200FFE7FFE74A
S31502001150009801300090DEE702B0704785B08DF846
S31502001160070000200090EFF3108002900298009092
S3150200117001200490049880F310889DF8071040F629
S31502001180FC10C2F2062030F8110060B1FFE79DF8AC
S31502001190072040F6FC11C2F2062131F8120001388E
S315020011A021F81200FFE79DF8071040F6FC10C2F284
S315020011B0062030F8110090B9FFE74EF2FA31C4F278
S315020011C00101088840F425409DF8073044F20A429E
S315020011D0C0F2002232F8132090430880FFE70098FD
S315020011E00390039880F3108805B0704785B08DF898
S315020011F0070000200090EFF3108002900298009002
S3150200120001200490049880F310889DF8071040F698
S31502001210FC10C2F2062030F8110090B9FFE74EF238
S31502001220FA31C4F2010108889DF8073044F20A42F5
S31502001230C0F2002232F81320104340F42540088001
S31502001240FFE79DF8072040F6FC11C2F2062131F8AD
S315020012501200013021F8120000980390039880F3DF
S31502001260108805B0704780B56F4600F006F8FFF7A4
S315020012707AF8FFE7FEE700BE704780B56F4692B088
S315020012804EF61451CEF2000140F20120C0F20E00D9
S315020012900860BFF34F8FBFF36F8F4EF60050CEF24A
S315020012A00000006810901098C0F303500F90109839
S315020012B000F00F000E904EF20001CEF201010891ED
S315020012C0086840F004000860BFF34F8FBFF36F8FCA
S315020012D04EF20801CEF20001086840F48030086040
S315020012E0BFF34F8FBFF36F8F4EF68851CEF20001D8
S315020012F04FF47000086000200790FEF770FFFFF7BA
S315020013008EFC07984EF2FA31C4F201014AF20252F9
S315020013100A804EF6B022C4F2010210704FF4254044
S3150200132008800120FEF75BFF089840F20001C2F236
S3150200133006211191119981F30A8800688007002815
S3150200134037D5FFE74EF60850CEF200000068B0F13E
S31502001350007F2ED1FFE74EF21000CEF201000068A8
S3150200136000F07800092101EBD002012000FA02F216
S31502001370D2080D924EF21402CEF20102126802F067
S31502001380780201EBD2018840C0080C900D9869469C
S3150200139008600023069318461A4600F08DF8069B4D
S315020013A00C98694608604FF000501A4600F084F81F
S315020013B0FFE70020059000F096F8FFF7A3FBFFF782
S315020013C041FD0320FFF712FF05980B90FFE70B98EC
S315020013D009280DD8FFE70B9A40F63051C4F24001B6
S315020013E0002021F82200FFE70B9801300B90EEE770
S315020013F003200290FFF7B2FE0298FFF7F7FE02986B
S3150200140044F20402C4F2200200210491116044F263
S315020014100802C4F22002116044F20C02C4F2200255
S31502001420116044F21002C4F220021160FFF796FE28
S315020014300220FEF7D4FE012000F055F840F6644083
S31502001440C2F20620039002F0BBFA039802F0CEFA2B
S315020014500498BFF34F8FBFF36F8F4EF65071CEF2E3
S3150200146000010860BFF34F8FBFF36F8F44F27242E1
S31502001470C0F2002244F27241C0F20021891A891098
S315020014800A910990FFE709980A9988420DDAFFE75F
S31502001490099944F27240C0F2002050F821008047B8
S315020014A0FFE7099801300990EDE7FFF727FE0020D4
S315020014B000F07EF812B080BD80B56F4684B0B96880
S315020014C00390019300920398B968009ADDF804C06C
S315020014D0634641F005C800BFE0E802230FF005C0ED
S315020014E0039004B080BD80B56F4684B0039000209F
S315020014F00290FFE7029844F2CC21C0F2002109686B
S31502001500884225D2FFE7039844F2CC21C0F200219B
S315020015104968029A02EB420201EB8201497A884249
S3150200152011D1FFE744F2CC20C0F2002040680299B4
S3150200153001EB410200EB820150F822004968091AC8
S3150200154002F05EFAFFE7FFE7029801300290D1E768
S3150200155000200190FFE7019844F2CC21C0F200215D
S315020015608968884222D2FFE7039844F2CC21C0F26E
S315020015700021C968019A01EB0211497B884210D108
S31502001580FFE744F2CC20C0F20020C068019A00EBCB
S315020015900211120180584A688968121A02F034FA56
S315020015A0FFE7FFE7019801300190D4E704B080BD60
S315020015B081B0009001B0704781B00090009901F1AE
S315020015C00800486000994FF0FF308860009901F1E9
S315020015D00800C860009901F108000861009900201E
S315020015E0086001B0704781B0009000990020086140
S315020015F001B0704784B0039002910298006800908F
S315020016000098013020B9FFE703980069019010E0C5
S31502001610039808300190FFE7019840680068009936
S31502001620884205D8FFE7FFE7019840680190F3E793
S31502001630FFE701984068029948600298416888600D
S315020016400198029988600298019948600398029964
S315020016500861039908680130086004B0704782B0D7
S31502001660019001980069009001984168806888603D
S3150200167001994868896848600098406801998842DB
S3150200168005D1FFE7019880680099486000E0FFE70E
S3150200169001990020086100990868013808600098DD
S315020016A0006802B0704780B56F4684B0039002911D
S315020016B00120019003980090009808B1FFE70FE01F
S315020016C043F63060C0F2002043F6B672C0F2002242
S315020016D043F61373C0F2002340F20111FFF72BFC0D
S315020016E00098002856D0FFE70098C06B002851D01A
S315020016F0FFE70098C26B016C4FF0FF30B0FBF2F0CF
S31502001700884247D3FFE7FEF7A8FF00990B68C86B2C
S315020017100A6C00FB023088600099002088630099F9
S315020017200868486000990B68C86B0A6C013800FBB0
S315020017300230C8600099FF2081F84400009981F8C0
S3150200174045000298D0B9FFE700980069A0B1FFE70B
S315020017500098103001F012FC60B1FFE74EF604511A
S31502001760CEF200014FF080500860BFF34F8FBFF3F7
S315020017706F8F00E0FFE700E0FFE708E00098103017
S31502001780FFF71AFF00982430FFF716FFFFE7FEF770
S315020017909EFF02E000200190FFE7019808B1FFE7F3
S315020017A00FE043F63060C0F2002043F6B672C0F294
S315020017B0002243F62B73C0F200234FF49B71FFF70E
S315020017C0BAFB019804B080BD80B56F4688B08446E6
S315020017D0B868CDF81CC006910592049307F8110C5F
S315020017E000200290049808B1FFE70FE043F630604C
S315020017F0C0F2002043F68652C0F2002243F6F733C7
S31502001800C0F200234FF4A771FFF795FB0798B0B318
S31502001810FFE7049898B3FFE7059818B1FFE7069823
S3150200182068B3FFE7059818B9FFE7069838BBFFE7E4
S31502001830482001900198482801D1FFE70FE043F6BE
S315020018403060C0F2002043F68652C0F2002243F610
S315020018505753C0F2002340F25F11FFF76CFB019869
S315020018600498029007980699059A17F8113CDDF834
S3150200187008C0EE46CEF800C000F019F814E002984F
S3150200188008B1FFE70FE043F63060C0F2002043F6EE
S315020018908652C0F2002243F69A63C0F200234FF446
S315020018A0B871FFF748FBFFE7029808B080BD80B524
S315020018B06F4684B0D7F808C003900291019207F8E8
S315020018C00D3C029818B9FFE7B868006003E001987A
S315020018D0B9680860FFE70398B968C8630298B968EF
S315020018E00864B8680121FFF7DEFE04B080BD80B54A
S315020018F06F4686B0059004910392002002900598E7
S31502001900C0B1FFE704980599884213D8FFE7059806
S31502001910039B6A460221116000221146FFF754FF1B
S315020019200290029820B1FFE704980299886300E0CA
S31502001930FFE714E0029808B1FFE70FE043F63060D4
S31502001940C0F2002043F6EB52C0F2002243F60543F2
S31502001950C0F200234FF4EE71FFF7EDFAFFE70298AB
S3150200196006B080BD80B56F468AB008900791069290
S3150200197005930020049008980090009808B1FFE7AC
S315020019800FE043F63060C0F2002043F67732C0F231
S31502001990002243F61373C0F200234FF4FB71FFF7E4
S315020019A0CAFA079820B9FFE70098006C08B9FFE762
S315020019B00FE043F63060C0F2002043F67732C0F201
S315020019C0002244F26203C0F2002340F2F711FFF74D
S315020019D0B2FA0598022805D1FFE70098C06B0128E4
S315020019E001D1FFE70FE043F63060C0F2002043F674
S315020019F07732C0F2002243F60D43C0F200234FF4C1
S31502001A00FC71FFF798FA01F028FC18B9FFE706986F
S31502001A1008B9FFE70FE043F63060C0F2002043F654
S31502001A207732C0F2002243F68933C0F2002340F235
S31502001A30FB11FFF780FAFFE7FEF70FFE0098806BB7
S31502001A400099C96B884204D3FFE70598022834D16E
S31502001A50FFE700980799059A00F098F80390009816
S31502001A60406AA0B1FFE70098243001F087FA60B11E
S31502001A70FFE74EF60451CEF200014FF080500860A7
S31502001A80BFF34F8FBFF36F8F00E0FFE710E00398BD
S31502001A9060B1FFE74EF60451CEF200014FF08050DE
S31502001AA00860BFF34F8FBFF36F8F00E0FFE7FFE7DA
S31502001AB0FEF70DFE0120099065E0069828B9FFE7BA
S31502001AC0FEF705FE002009905DE0049830B9FFE7B5
S31502001AD001A801F033FB0120049000E0FFE7FFE7D5
S31502001AE0FFE7FEF7F4FD00F043FDFEF7B6FD0098B2
S31502001AF090F94400013028B9FFE70099002081F8E7
S31502001B004400FFE7009890F94500013028B9FFE745
S31502001B100099002081F84500FFE7FEF7D8FD01A8ED
S31502001B2006A901F01DFB28BBFFE7009800F087F825
S31502001B30C8B1FFE700981030069901F0B0F9009895
S31502001B4000F095F800F0A0FD60B9FFE74EF60451EB
S31502001B50CEF200014FF080500860BFF34F8FBFF303
S31502001B606F8FFFE705E0009800F081F800F08CFD2A
S31502001B70FFE707E0009800F07AF800F085FD002004
S31502001B80099000E058E709980AB080BD80B56F4613
S31502001B9086B0059004910392002002900598806B0E
S31502001BA001900598006C08B9FFE741E00398B8B9BF
S31502001BB0FFE7059A04995068126C01F025FF059912
S31502001BC048680A6C104448600599486889688842E2
S31502001BD004D3FFE705990868486000E0FFE726E0BE
S31502001BE0059A0499D068126C01F00EFF0599C8682F
S31502001BF00A6C801AC86005980168C068884206D2D5
S31502001C00FFE7059988680A6C801AC86000E0FFE75A
S31502001C100398022809D1FFE7019820B1FFE701984E
S31502001C200138019000E0FFE700E0FFE7FFE7FFE78A
S31502001C300198013005998863029806B080BD80B587
S31502001C406F4682B00190FEF708FD0198806B0199FC
S31502001C50C96B884203D1FFE70120009002E0002011
S31502001C600090FFE7FEF733FD009802B080BD80B515
S31502001C706F4682B00190FEF7F0FC019890F845009D
S31502001C8007F8050CFFE717F9050C012816DBFFE735
S31502001C900198406A58B1FFE70198243001F06EF9C5
S31502001CA018B1FFE701F0D2FA00E0FFE700E005E035
S31502001CB017F8050C013807F8050CE4E70199FF202F
S31502001CC081F84500FEF703FDFEF7C7FC019890F880
S31502001CD0440007F8060CFFE717F9060C012816DB85
S31502001CE0FFE70198006980B1FFE70198103001F023
S31502001CF045F918B1FFE701F0A9FA00E0FFE717F886
S31502001D00060C013807F8060C00E000E0E4E701994A
S31502001D10FF2081F84400FEF7DAFC02B080BD80B5F0
S31502001D206F468AB00890079106920020059008989F
S31502001D300290029808B1FFE70FE043F63060C0F266
S31502001D40002043F60F62C0F2002243F6DC33C0F2F3
S31502001D50002340F22941FFF7EEF8079820B9FFE782
S31502001D600298006C08B9FFE70FE043F63060C0F254
S31502001D70002043F60F62C0F2002243F6A563C0F2CA
S31502001D80002340F22D41FFF7D6F801F066FA18B9A2
S31502001D90FFE7069808B9FFE70FE043F63060C0F2A6
S31502001DA0002043F60F62C0F2002243F68933C0F2E6
S31502001DB0002340F23241FFF7BEF8FFE7FEF74DFC83
S31502001DC00298806B0190019830B3FFE70298079959
S31502001DD000F093F801980138029988630298006925
S31502001DE0A0B1FFE70298103001F0C8F860B1FFE732
S31502001DF04EF60451CEF200014FF080500860BFF358
S31502001E004F8FBFF36F8F00E0FFE700E0FFE7FEF7BB
S31502001E105EFC012009906DE0069828B9FFE7FEF7FF
S31502001E2056FC0020099065E0059830B9FFE703A843
S31502001E3001F084F90120059000E0FFE7FFE7FFE7E4
S31502001E40FEF745FC00F094FBFEF707FC029890F9BA
S31502001E504400013028B9FFE70299002081F84400C6
S31502001E60FFE7029890F94500013028B9FFE7029989
S31502001E70002081F84500FFE7FEF729FC03A806A922
S31502001E8001F06EF930BBFFE7029800F058F8D0B1C6
S31502001E90FFE702982430069901F001F80298FFF74D
S31502001EA0E6FE00F0F1FB60B9FFE74EF60451CEF212
S31502001EB000014FF080500860BFF34F8FBFF36F8F62
S31502001EC000E0FFE705E00298FFF7D1FE00F0DCFB39
S31502001ED0FFE70EE00298FFF7CAFE00F0D5FB029874
S31502001EE000F02DF818B1FFE70020099002E0FFE7A5
S31502001EF0FFE763E709980AB080BD80B56F4682B0F6
S31502001F00019000910198006CB8B1FFE70199C86889
S31502001F100A6C1044C86001988168C068884204D37C
S31502001F20FFE701990868C86000E0FFE70098019A98
S31502001F30D168126C01F068FDFFE702B080BD80B582
S31502001F406F4682B00190FEF788FB0198806B18B944
S31502001F50FFE70120009002E000200090FFE7FEF775
S31502001F60B6FB009802B080BD80B56F4688B0069079
S31502001F7005910020049006980190019808B1FFE7A8
S31502001F800FE043F63060C0F2002043F67252C0F210
S31502001F90002243F6DC33C0F2002340F2C241FEF7D0
S31502001FA0CAFF0198006C08B9FFE70FE043F63060FC
S31502001FB0C0F2002043F67252C0F2002243F6E373E7
S31502001FC0C0F2002340F2C641FEF7B5FF01F045F923
S31502001FD018B9FFE7059808B9FFE70FE043F6306046
S31502001FE0C0F2002043F67252C0F2002243F6893351
S31502001FF0C0F2002340F2CB41FEF79DFFFFE7FEF75A
S315020020002CFB0198806B0090009810B3FFE70098B4
S3150200201001380199886301980069A0B1FFE7019828
S31502002020103000F0ABFF60B1FFE74EF60451CEF27E
S3150200203000014FF080500860BFF34F8FBFF36F8FE0
S3150200204000E0FFE700E0FFE7FEF741FB0120079013
S315020020506DE0059828B9FFE7FEF739FB00200790E7
S3150200206065E0049830B9FFE702A801F067F801209D
S31502002070049000E0FFE7FFE7FFE7FEF728FB00F02A
S3150200208077FAFEF7EAFA019890F94400013028B986
S31502002090FFE70199002081F84400FFE7019890F9D3
S315020020A04500013028B9FFE70199002081F8450073
S315020020B0FFE7FEF70CFB02A805A901F051F830BBB9
S315020020C0FFE70198FFF73BFFD0B1FFE70198243005
S315020020D0059900F0E4FE0198FFF7C9FD00F0D4FA75
S315020020E060B9FFE74EF60451CEF200014FF0805080
S315020020F00860BFF34F8FBFF36F8F00E0FFE705E085
S315020021000198FFF7B4FD00F0BFFAFFE70EE0019871
S31502002110FFF7ADFD00F0B8FA0198FFF710FF18B10E
S31502002120FFE70020079002E0FFE7FFE767E707986F
S3150200213008B080BD80B56F4684B00390029100203E
S315020021400090039808B1FFE70FE043F63060C0F253
S31502002150002043F64222C0F2002243F66573C0F223
S31502002160002340F60921FEF7E6FE0298C8B3FFE710
S3150200217000200190FFE70198092831D8FFE703986C
S31502002180019A40F60C21C2F2062101EBC20149680E
S31502002190884209D1FFE7019940F60C20C2F20620D7
S315020021A000EBC10000901BE0009890B9FFE701998F
S315020021B040F60C20C2F2062050F8310048B9FFE77B
S315020021C0019940F60C20C2F2062000EBC1000090F5
S315020021D000E0FFE7FFE7FFE7019801300190CAE759
S315020021E0FFE7009838B1FFE7029800990860039864
S315020021F000994860FFE704B080BD80B56F4684B0A1
S3150200220003900291019203980090FEF726FA009835
S3150200221090F94400013028B9FFE70099002081F8BF
S315020022204400FFE7009890F94500013028B9FFE71E
S315020022300099002081F84500FFE7FEF748FA00986A
S31502002240806B38B9FFE7009824300299019A00F0B2
S315020022504EFE00E0FFE70098FFF709FD04B080BDDF
S31502002260F0B503AF4DF804BD8AB0D7F810C0D7F861
S315020022700CC0D7F808C0099008910792069300206F
S31502002280059009980899079A069BD7F808C0FC6832
S315020022903D69EE4605AECEF80C60CEF80850CEF893
S315020022A00440CEF800C000F00EF80490049820B165
S315020022B0FFE7049800F084F800E0FFE705980AB00B
S315020022C05DF804BBF0BDF0B503AF4DF804BD8AB0AE
S315020022D0D7F814C0D7F810C0D7F80CC0D7F808C082
S315020022E00990089107920693F86808B1FFE70FE094
S315020022F043F66F60C0F2002043F65B62C0F2002232
S3150200230043F61833C0F2002340F2F141FEF713FE02
S31502002310386908B1FFE70FE043F66F60C0F20020AC
S3150200232043F65B62C0F2002243F6BD43C0F20023CD
S3150200233040F2F241FEF7FFFD602004900498602807
S3150200234001D1FFE70FE043F66F60C0F2002043F6CB
S315020023505B62C0F2002244F2B803C0F2002340F2EC
S31502002360FA41FEF7E8FD0498386908B3FFE7F86812
S31502002370F0B1FFE7386905900598602101F040FB4E
S31502002380F8680599086309980899079A069BD7F889
S3150200239008C07C69059DEE460026CEF80C60CEF894
S315020023A00850CEF80440CEF800C000F072FF02E0FA
S315020023B000200590FFE705980AB05DF804BBF0BD62
S315020023C080B56F4682B00190FEF747F940F680214C
S315020023D0C2F2062108680130086040F65C20C2F2AB
S315020023E00620006898B9FFE7019840F65C21C2F220
S315020023F00621086040F68020C2F206200068012805
S3150200240003D1FFE700F0DCFF00E0FFE71CE040F647
S315020024106420C2F206200068A0B9FFE740F65C20FD
S31502002420C2F206200068C06A0199C96A884207D8C2
S31502002430FFE7019840F65C21C2F20621086000E03F
S31502002440FFE700E0FFE7FFE740F66021C2F2062160
S31502002450086801300860FFE7FFE70198C06A40F6A6
S31502002460F021C2F206210968884208D9FFE70198DD
S31502002470C06A40F6F021C2F206210860FFE7FFE7D4
S31502002480FFE70198C06A00EB800040F68C21C2F299
S31502002490062101EB8000406800900098019A906046
S315020024A000988068019AD06001980430009A926878
S315020024B0506001980430009A9060019AD06A00EB4D
S315020024C0800001EB800050610198C06A00EB800237
S315020024D051F82200013041F82200FFE7FFE7FEF73C
S315020024E0F6F840F66420C2F206200068D8B1FFE78B
S315020024F0FFE740F65C20C2F206200068C06A019936
S31502002500C96A88420CD2FFE74EF60451CEF20001A8
S315020025104FF080500860BFF34F8FBFF36F8F00E01C
S31502002520FFE7FFE700E0FFE702B080BD40F62C3090
S31502002530C2F206200068006840B9FFE740F6203183
S31502002540C2F206214FF0FF3008600CE040F62C3054
S31502002550C2F206200068C068006840F62031C2F266
S3150200256006210860FFE7704781B0009001B070470E
S3150200257040F68421C2F206210868013008607047DD
S3150200258080B56F4688B00790069140F68820C2F261
S3150200259006200068049040F62C30C2F2062000683D
S315020025A0039040F63030C2F206200068029040F6F0
S315020025B05C20C2F2062000680430FFF750F808B922
S315020025C0FFE700E0FFE70798013028BBFFE7069820
S315020025D010B3FFE7FFE740F6F421C2F2062148688E
S315020025E00190019A40F65C20C2F2062003689A60C6
S315020025F0019A92680368DA6002680432019B9B685A
S315020026005A6002680432019B9A6000684161086858
S3150200261001300860FFE735E0049807990844059001
S31502002620059840F65C21C2F20621096848600598C1
S31502002630049988420AD2FFE7029840F65C21C2F268
S31502002640062109680431FEF7D5FF1AE0039840F621
S315020026505C21C2F2062109680431FEF7CBFF059818
S3150200266040F62031C2F206210968884207D2FFE706
S31502002670059840F62031C2F20621086000E0FFE725
S31502002680FFE7FFE708B080BD80B56F4688B000203F
S31502002690009007900690FDF7E0FF0098059040F63F
S315020026A08420C2F20620006808B1FFE70FE043F675
S315020026B06F60C0F2002043F67542C0F2002243F674
S315020026C08073C0F2002340F68B71FEF734FC40F6AD
S315020026D08420C2F2062001680139016000680028E0
S315020026E040F00481FFE740F68020C2F2062000682F
S315020026F0002800F0FA80FFE7FFE740F60C30C2F24E
S3150200270006200068002800F0A280FFE740F60C30A1
S31502002710C2F20620C068C0680790FFE70798806A81
S3150200272004900798C169006A88600799C869096AAE
S3150200273048600498406807991831884205D1FFE736
S315020027400798006A04994860FFE7079900208862A3
S315020027500499086801380860FFE7FFE707984069AF
S31502002760039007988168C068886007998868C96875
S3150200277048600398406807990431884205D1FFE70B
S315020027800798C06803994860FFE7079900204861E7
S315020027900399086801380860FFE7FFE7FFE7079833
S315020027A0C06A40F6F021C2F206210968884208D9B9
S315020027B0FFE70798C06A40F6F021C2F206210860D8
S315020027C0FFE7FFE7FFE70798C06A00EB800040F6E5
S315020027D08C21C2F2062101EB800040680290029829
S315020027E0079A906002988068079AD060079804302A
S315020027F0029A9268506007980430029A9060079A8B
S31502002800D06A00EB800001EB800050610798C06A35
S3150200281000EB800251F82200013041F82200FFE766
S31502002820FFE70798C06A40F65C21C2F206210968F2
S31502002830C96A884209D9FFE7059A40F60831C2F209
S315020028400621012041F8220000E0FFE755E707983C
S3150200285018B1FFE7FFF76AFEFFE740F62830C2F23B
S315020028600620006801900198F0B1FFE7FFE700F04B
S31502002870D2F948B1FFE7059A40F60831C2F20621BD
S31502002880012041F8220000E0FFE70198013801909B
S31502002890FFE7019808B12FF017C040F62831C2F2BF
S315020028A006210020086000E0FFE7059940F608309F
S315020028B0C2F2062050F82100A8B1FFE701200690D7
S315020028C0FFE740F65C20C2F2062000684EF604518D
S315020028D0CEF200014FF080500860BFF34F8FBFF376
S315020028E06F8FFFE700E0FFE7FFE700E0FFE7FDF796
S315020028F0EEFE069808B080BD80B56F4682B00190A4
S3150200290000200090019818B3FFE7FFF731FE40F66A
S315020029108420C2F206200068012801D1FFE70FE0F9
S3150200292043F66F60C0F2002043F61B72C0F200222B
S3150200293043F6B253C0F2002340F68E11FEF7FBFABD
S3150200294001980021FFF71CFEFFF79EFE009000E0B3
S31502002950FFE7009860B9FFE74EF60451CEF2000198
S315020029604FF080500860BFF34F8FBFF36F8F00E0C8
S31502002970FFE702B080BD80B56F4682B040F6842084
S31502002980C2F20620006838B1FFE740F60831C2F20B
S315020029900621012008605FE040F60831C2F20621F6
S315020029A000200860FFE740F6F020C2F20620006829
S315020029B00190FFE7019800EB800140F68C20C2F2FD
S315020029C0062050F82100C0B9FFE7019808B1FFE7D9
S315020029D00FE043F66F60C0F2002043F60532C0F204
S315020029E0002244F21203C0F2002341F2FA31FEF74A
S315020029F0A2FA019801380190DCE7FFE7019800EBA3
S31502002A00800140F68C20C2F2062000EB8100009085
S31502002A1000994868406848600099486808318842C9
S31502002A2004D1FFE70099C8684860FFE7009840684C
S31502002A30C06840F65C21C2F206210860FFE70198F1
S31502002A4040F6F021C2F206210860FFE740F65C205C
S31502002A50C2F206200068FFE702B080BD80B56F466D
S31502002A6082B000F045F800900098012804D1FFE7F3
S31502002A7000F00DFD009000E0FFE7009801281AD152
S31502002A80FFE701200190019981F3108840F6203278
S31502002A90C2F206224FF0FF31116040F66421C2F203
S31502002AA00621086040F68821C2F20621002008604D
S31502002AB0FDF77BFD15E00098013008B1FFE70FE056
S31502002AC043F66F60C0F2002043F66C72C0F2002239
S31502002AD043F6D953C0F2002340F6A961FEF72BFA5A
S31502002AE0FFE744F22040C0F20020006802B080BD39
S31502002AF080B56F4690B001200F9000200990089093
S31502002B00FFE708980F2813DCFFE7089A43F62670BA
S31502002B10C0F20020815C0AA881540899405C08B979
S31502002B20FFE705E0FFE7FFE7089801300890E8E7CE
S31502002B3000200E90FFE70E9800283BDCFFE743F2E9
S31502002B405140C0F2002009900020049007900690A0
S31502002B5007A806A905AAFDF737FC049B0998059A5A
S31502002B60DDF818C0DDF81CE06946C1F808E0C1F8D6
S31502002B7004C00B600AA9FFF773FB01460E9A40F6E2
S31502002B802430C2F2062040F822100E9950F8210095
S31502002B9018B1FFE701200F9002E000200F90FFE737
S31502002BA00F9808B9FFE705E0FFE7FFE70E98013047
S31502002BB00E90C0E70F9810B080BD80B56F4682B008
S31502002BC0FFE740F67C20C2F20620006808B3FFE762
S31502002BD0FDF743FD40F66820C2F20620C068C068D1
S31502002BE0019001980430FEF73AFD40F68021C2F2C8
S31502002BF0062108680138086040F67C21C2F20621E7
S31502002C00086801380860FDF762FD0198FFF7ACFC21
S31502002C10D7E702B080BD80B56F4688B00020059028
S31502002C2040F68420C2F206200068002840F0228185
S31502002C30FFE740F68821C2F20621086801300490B7
S31502002C40049808600498C8BBFFE7FFE740F62C30FB
S31502002C50C2F206200068006818B9FFE7012018B919
S31502002C6003E0012008B9FFE70FE043F66F60C0F208
S31502002C70002043F61D62C0F2002243F68F23C0F203
S31502002C80002341F25F21FEF756F940F62C32C2F2DA
S31502002C9006221068039040F63031C2F20621086817
S31502002CA010600398086040F63431C2F206210868C3
S31502002CB001300860FFF73AFCFFE700E0FFE70498FF
S31502002CC040F62031C2F2062109688842C0F0C68069
S31502002CD0FFE7FFE740F62C30C2F2062000680068E4
S31502002CE040B9FFE740F62031C2F206214FF0FF302D
S31502002CF00860B2E040F62C30C2F206200068C068D6
S31502002D00C06807900798406806900498069988421A
S31502002D1007D2FFE7069840F62031C2F20621086084
S31502002D209BE0FFE7FFE707984069029007988168F2
S31502002D30C068886007998868C968486002984068D0
S31502002D4007990431884205D1FFE70798C0680299BE
S31502002D504860FFE707990020486102990868013830
S31502002D600860FFE70798806A08B3FFE7FFE707985E
S31502002D70806A01900798C169006A88600799C869E4
S31502002D80096A48600198406807991831884205D156
S31502002D90FFE70798006A01994860FFE70799002054
S31502002DA088620199086801380860FFE700E0FFE7DA
S31502002DB0FFE7FFE70798C06A40F6F021C2F2062154
S31502002DC00968884208D9FFE70798C06A40F6F021E9
S31502002DD0C2F206210860FFE7FFE7FFE70798C06A2D
S31502002DE000EB800040F68C21C2F2062101EB800046
S31502002DF0406800900098079A906000988068079A49
S31502002E00D06007980430009A9268506007980430A0
S31502002E10009A9060079AD06A00EB800001EB80006E
S31502002E2050610798C06A00EB800251F82200013017
S31502002E3041F82200FFE7FFE70798C06A40F65C21E7
S31502002E40C2F206210968C96A884203D9FFE701204E
S31502002E50059000E0FFE7FFE73CE7FFE740F60830B2
S31502002E60C2F20620006818B1FFE70120059000E0D3
S31502002E70FFE707E040F62831C2F206210868013072
S31502002E800860FFE7059808B080BD81B040F688204B
S31502002E90C2F2062000680090009801B0704780B523
S31502002EA06F4682B001900091019808B1FFE70FE0EA
S31502002EB043F66F60C0F2002043F64F72C0F2002262
S31502002EC043F6CD53C0F200234FF4A451FEF733F874
S31502002ED0019840F65C21C2F2062109681831FEF714
S31502002EE089FB00980121FFF74BFB02B080BD80B53C
S31502002EF06F4684B0039002910192039808B1FFE7EE
S31502002F000FE043F66F60C0F2002043F68442C0F23F
S31502002F10002243F6CD53C0F2002341F2BE41FEF732
S31502002F200AF8FFE7039840680090009840F65C2193
S31502002F30C2F206210A68D061009880680A681062A7
S31502002F4008681830009A9268506008681830009A2B
S31502002F5090600398096888620399086801300860DE
S31502002F60FFE7019820B1FFE74FF0FF300290FFE73D
S31502002F7002980199FFF704FB04B080BD80B56F4645
S31502002F8088B007900798C068C0680690069808B18E
S31502002F90FFE70FE043F66F60C0F2002043F6A4425B
S31502002FA0C0F2002243F6E833C0F2002341F2F541B3
S31502002FB0FDF7C1FFFFE70698806A04900698C1698B
S31502002FC0006A88600699C869096A48600498406878
S31502002FD006991831884205D1FFE70698006A0499D6
S31502002FE04860FFE70699002088620499086801385C
S31502002FF00860FFE740F68420C2F206200068002837
S3150200300065D1FFE7FFE70698406903900698816855
S31502003010C068886006998868C968486003984068ED
S3150200302006990431884205D1FFE70698C0680399DC
S315020030304860FFE70699002048610399086801384D
S315020030400860FFE7FFE7FFE70698C06A40F6F0214F
S31502003050C2F206210968884208D9FFE70698C06AC3
S3150200306040F6F021C2F206210860FFE7FFE7FFE71C
S315020030700698C06A00EB800040F68C21C2F2062157
S3150200308001EB8000406802900298069A90600298CE
S315020030908068069AD06006980430029A9268506058
S315020030A006980430029A9060069AD06A00EB800075
S315020030B001EB800050610698C06A00EB800251F86D
S315020030C02200013041F82200FFE7FFE71DE0FFE79B
S315020030D040F60C31C2F20621486801900198069A20
S315020030E0D06101988068069A106206981830019A93
S315020030F09268506006981830019A9060069881622C
S31502003100086801300860FFE7FFE70698C06A40F6E4
S315020031105C21C2F206210968C96A884208D9FFE71A
S315020031200120059040F60831C2F20621086002E04D
S3150200313000200590FFE7059808B080BD81B0009099
S3150200314040F63430C2F2062000680099086040F664
S315020031508820C2F2062000680099486001B07047D4
S3150200316080B56F4686B005900491059808B1FFE7D1
S315020031700FE043F66F60C0F2002043F6FE62C0F233
S31502003180002243F65A43C0F2002341F2A551FDF74D
S31502003190D2FE049808B1FFE70FE043F66F60C0F273
S315020031A0002043F6FE62C0F2002243F6FB43C0F261
S315020031B0002341F2A651FDF7BEFEFDF74EFA40F698
S315020031C08820C2F206200068029002980599496892
S315020031D0401A019004980068013018B9FFE70020F0
S315020031E003902EE040F63430C2F2062000680599BC
S315020031F0096888420CD0FFE7029805994968884217
S3150200320006D3FFE70120039004990020086017E027
S3150200321001980499096888420BD2FFE7019A04993A
S315020032200868801A08600598FFF788FF0020039057
S3150200323005E004990020086001200390FFE7FFE7FC
S31502003240FFE7FDF744FA039806B080BD40F6083161
S31502003250C2F2062101200860704781B040F6642060
S31502003260C2F20620006818B9FFE7012000900DE0BF
S3150200327040F68420C2F20620006818B9FFE7022051
S31502003280009002E000200090FFE7FFE7009801B0FF
S31502003290704780B56F4686B0D7F814C0D7F810C00D
S315020032A0D7F80CC0D7F808C0059004910392029390
S315020032B03869006B039900EB81000438019001988C
S315020032C020F0070001909DF80400400708B9FFE7C7
S315020032D00FE043F66F60C0F2002043F6D842C0F218
S315020032E0002244F22003C0F2002340F22E71FDF7C1
S315020032F022FE0498F8B1FFE700200090FFE700984D
S315020033000F2813D8FFE70498009A805C39691144A4
S3150200331081F8340004980099405C08B9FFE705E09B
S31502003320FFE7FFE7009801300090E8E739690020DF
S3150200333081F8430000E0FFE7B868042801D8FFE7F8
S315020033400FE043F66F60C0F2002043F6D842C0F2A7
S31502003350002243F66443C0F2002340F26471FDF793
S31502003360EAFDB868052803D3FFE70420B86000E049
S31502003370FFE7B8683969C86238690430FEF733F97D
S3150200338038691830FEF72FF938690061B868C0F15C
S315020033900500396988613869406201983969096BA3
S315020033A0059A029BFDF7C7F839690860F86820B1EB
S315020033B0FFE73869F968086000E0FFE706B080BDFC
S315020033C080B56F4684B000200390FFE70398042877
S315020033D010D8FFE7039800EB800140F68C20C2F27A
S315020033E0062000EB8100FEF7E7F8FFE703980130BD
S315020033F00390EBE740F63830C2F206200190FEF762
S31502003400DBF840F64C30C2F206200290FEF7D4F802
S3150200341040F60C30C2F20620FEF7CEF840F66820DF
S31502003420C2F20620FEF7C8F840F6F420C2F20620E1
S31502003430FEF7C2F80199029840F62C32C2F2062231
S31502003440116040F63031C2F20621086004B080BD38
S3150200345080B56F4682B00190FFE7FFF7AEFB40F6FC
S315020034608C20C2F20620006802280CD3FFE74EF633
S315020034700451CEF200014FF080500860BFF34F8F27
S31502003480BFF36F8F00E0FFE7FDF772F9E5E780B55E
S315020034906F4688B00020079000F04AF840F6603088
S315020034A0C2F20620006858B3FFE700200390069098
S315020034B0059006A805A904AAFCF79BFF039B049A9C
S315020034C00598DDF818C06946C1F808C048600320AF
S315020034D0086043F2D550C0F2002043F6C971C0F22B
S315020034E00021FEF7BDFE014640F66430C2F2062018
S315020034F00160006818B1FFE701200790FFE700E0CE
S31502003500FFE7079808B1FFE70FE043F63530C0F250
S31502003510002043F6FC72C0F2002243F60953C0F2C1
S3150200352000234FF4A371FDF706FD079808B080BD8E
S3150200353080B56F4684B0FDF790F840F66030C2F26F
S3150200354006200068002840D1FFE740F67430C2F238
S3150200355006200290FEF730F840F68830C2F20620C6
S315020035600390FEF729F80299039840F66832C2F2F0
S315020035700622116040F66C31C2F2062108606946E5
S315020035800020086040F6E432C2F2062240F69C337E
S31502003590C2F206230A200C21FEF716F9014640F66E
S315020035A06030C2F206200160006860B1FFE740F6B3
S315020035B06030C2F20620006843F67231C0F2002182
S315020035C0FEF7B8FD00E0FFE700E0FFE7FDF77FF852
S315020035D004B080BD80B56F4684B00390FFE701A8B2
S315020035E000F008F802900298019900F023F800F022
S315020035F06FF8F4E782B0019040F66830C2F2062016
S315020036000068006800285FEA1F9001990860019827
S31502003610006848B9FFE740F66830C2F20620006843
S31502003620C0680068009002E000200090FFE7009862
S3150200363002B0704780B56F4684B003900291FEF7E0
S3150200364097FF684600F0E5F801900098D8BBFFE7BF
S31502003650029860B9FFE703980199884207D8FFE705
S31502003660FFF712F80398019900F0F6F82AE002989B
S3150200367058B1FFE740F66C30C2F2062000680068D7
S3150200368000285FEA1F900290FFE740F66030C2F220
S31502003690062000680399019A891A029AFEF7ADFD7F
S315020036A0FEF7F2FF60B9FFE74EF60451CEF20001D3
S315020036B04FF080500860BFF34F8FBFF36F8F00E06B
S315020036C0FFE7FFE702E0FEF7DFFFFFE704B080BD9A
S315020036D080B56F4688B00020079006900590FFE7F8
S315020036E040F66030C2F20620006805A90022FEF705
S315020036F016FB002800F08B80FFE70598002800F1F2
S315020037008580FFE7079804900498406928B1FFE78F
S3150200371004980430FDF7A3FF00E0FFE703A800F0DA
S3150200372078F80290059801380146019108286BD86D
S315020037300199DFE801F00505323A610505323A00E2
S31502003740049991F8240040F0010081F824000498BD
S31502003750069B81691944029A00F0EEF8D8B1FFE798
S31502003760049890F824004007002808D5FFE704983B
S31502003770069982691144029A00F0C3F807E0049997
S3150200378091F8240000F0FE0081F82400FFE7049877
S31502003790016A884700E0FFE737E0049991F82400C0
S315020037A000F0FE0081F824002FE0049991F824002D
S315020037B040F0010081F82400069804998861049873
S315020037C0806908B1FFE70FE043F63530C0F200200A
S315020037D043F69B72C0F2002244F2D103C0F20023E8
S315020037E04FF48261FDF7A7FB0498029B8169194495
S315020037F01A4600F0A1F808E0049991F8240000F0B6
S31502003800FE0081F8240000E0FFE7FFE768E708B062
S3150200381080BD80B56F4682B00190FFF736FB0090FF
S31502003820009840F67031C2F206210968884206D233
S31502003830FFE700F03CF801990120086003E00199D6
S3150200384000200860FFE7009840F67031C2F20621B8
S315020038500860009802B080BD80B56F4684B00390C0
S31502003860029140F66830C2F206200068C068C0685D
S31502003870019001980430FDF7F2FE019890F82400B9
S315020038804007002806D5FFE701980399029A00F03F
S3150200389038F807E0019991F8240000F0FE0081F85B
S315020038A02400FFE70198016A884704B080BD80B50D
S315020038B06F4682B0FFE740F66830C2F20620006823
S315020038C0006870B1FFE740F66830C2F20620006871
S315020038D0C0680068019001984FF0FF31FFF7BCFF06
S315020038E0E9E740F66832C2F206221068009040F616
S315020038F06C31C2F20621086810600098086002B0B6
S3150200390080BD80B56F4684B0039002910192FFE7B5
S315020039100398029B81691944019A00F00DF848B197
S31502003920FFE7039881690298084402900398016AA6
S315020039308847EDE704B080BD80B56F4686B0059036
S31502003940049103920293002001900498059948601D
S315020039500598006104980399884216D8FFE70398F0
S315020039600299401A05998969884203D3FFE7012023
S31502003970019009E040F66C30C2F206200068059913
S315020039800431FDF737FEFFE717E0039802998842F4
S3150200399008D2FFE704980299884203D3FFE7012081
S315020039A0019009E040F66830C2F2062000680599E7
S315020039B00431FDF71FFEFFE7FFE7019806B080BD61
S315020039C0D0B502AF05490446054A00F01DF8054880
S315020039D00549204400F014F8D0BD00BF40000002A3
S315020039E00000000000000000000000000249401A2A
S315020039F002490860704700BF08000000600C0622FA
S31502003A000A46002100F00AB8D0B502AF00239A4256
S31502003A1003D0CC5CC4540133F9E7D0BD00239A42EB
S31502003A2008BF7047C1540133F9E7D4D4000000003F
S31502003A307578437269746963616C4E657374696EF5
S31502003A406700765175657565416464546F526567A2
S31502003A506973747279002E2E2F72612F6673702F1E
S31502003A607372632F726D5F6672656572746F735FD0
S31502003A70706F72742F706F72742E630076506F724D
S31502003A8074456E746572437269746963616C002869
S31502003A9020282028202820707844656C6179656486
S31502003AA05461736B4C69737420292D3E75784E757B
S31502003AB06D6265724F664974656D73203D3D2028BF
S31502003AC0205542617365547970655F7420292030F0
S31502003AD02029203F202820282042617365547970CE
S31502003AE0655F74202920312029203A2028202820A9
S31502003AF042617365547970655F74202920302029EC
S31502003B002029202900765461736B537769746368A0
S31502003B10436F6E7465787400707578537461636B65
S31502003B2042756666657220213D202828766F696493
S31502003B302A293029002E2E2F72612F6177732F4684
S31502003B4072656552544F532F4672656552544F53F0
S31502003B502F536F757263652F74696D6572732E6369
S31502003B600075635356434E756D626572203C3D2067
S31502003B703300546D72510078517565756547656EEF
S31502003B806572696353656E64002128202820785483
S31502003B9061736B4765745363686564756C657253CC
S31502003BA0746174652829203D3D2028202820426121
S31502003BB07365547970655F74202920302029202985
S31502003BC0202626202820785469636B73546F576128
S31502003BD0697420213D203020292029002820707870
S31502003BE051756575652029007078556E626C6F6334
S31502003BF06B6564544342007078537461746963510F
S31502003C0075657565007848616E646C6500212820CB
S31502003C10282078436F7079506F736974696F6E20CC
S31502003C203D3D202820282042617365547970655FE6
S31502003C307420292032202920292026262028207097
S31502003C407851756575652D3E75784C656E67746835
S31502003C5020213D20312029202900707854696D6584
S31502003C604F75740075785072696F72697479203C69
S31502003C702028352900785461736B526573756D651A
S31502003C80416C6C00765461736B506C6163654F6E68
S31502003C904576656E744C69737452657374726963A2
S31502003CA074656400785461736B52656D6F76654610
S31502003CB0726F6D4576656E744C69737400707854D4
S31502003CC061736B42756666657220213D20282876EF
S31502003CD06F69642A29302900707276496E6974699F
S31502003CE0616C6973654E65775461736B00426C69EA
S31502003CF06E6B7920546872656164007078546963EA
S31502003D006B73546F57616974007852657475726E7D
S31502003D10002828285343425F54797065202A2920B7
S31502003D20282830784530303045303030554C2920FF
S31502003D302B20307830443030554C2920292D3E49ED
S31502003D40435352202620283078314646554C2029A6
S31502003D5029203D3D2030007853697A65203D3D207B
S31502003D6073697A656F66282051756575655F74207B
S31502003D70290078517565756553656D6170686F7256
S31502003D806554616B650078517565756547656E6545
S31502003D907269634372656174655374617469630021
S31502003DA076506F727453564348616E646C65725FE7
S31502003DB0430075785363686564756C6572537573F1
S31502003DC070656E646564203D3D203155007078450E
S31502003DD076656E744C697374007852657475726E8A
S31502003DE020213D2028202D31202900785175657526
S31502003DF065437265617465436F756E74696E675368
S31502003E00656D6170686F7265537461746963007879
S31502003E1051756575655265636569766500785461A5
S31502003E20736B496E6372656D656E745469636B007C
S31502003E302E2E2F72612F6177732F4672656552544B
S31502003E404F532F4672656552544F532F536F7572F7
S31502003E5063652F71756575652E63007072764372A0
S31502003E60656174655374617469635461736B002E82
S31502003E702E2F72612F6177732F4672656552544FEA
S31502003E80532F4672656552544F532F536F757263A3
S31502003E90652F7461736B732E630070784E6577516C
S31502003EA075657565002128202820282070764275C0
S31502003EB0666665722029203D3D202828766F696452
S31502003EC02A293029202920262620282028207078F1
S31502003ED0517565756520292D3E75784974656D5352
S31502003EE0697A6520213D20282055426173655479FF
S31502003EF070655F74202920305520292029007854C6
S31502003F0061736B436865636B466F7254696D654F87
S31502003F107574007078517565756500765461736BBA
S31502003F2044656C61790049444C4500785265747564
S31502003F30726E20213D2028202820282042617365A8
S31502003F40547970655F742029203020292029007653
S31502003F505461736B506C6163654F6E4576656E7422
S31502003F604C69737400785175657565007654617392
S31502003F706B53746172745363686564756C65720021
S31502003F8075785363686564756C657253757370658D
S31502003F906E64656420213D20305500707276507241
S31502003FA06F636573735265636569766564436F6DA6
S31502003FB06D616E64730078517565756547656E65EA
S31502003FC0726963526573657400546D722053766329
S31502003FD00076506F727445786974437269746963C6
S31502003FE0616C00707851756575652D3E75784974FA
S31502003FF0656D53697A65203D3D2030007854696DC0
S31502004000657243726561746554696D657254617354
S315020040106B007578546F705072696F7269747900AB
S3150200402028202820282075696E7433325F7420296F
S31502004030207078546F704F66537461636B2026202C
S31502004040282075696E7433325F7420292028203047
S31502004050783030303720292029203D3D2030552028
S315020040602900212820282070764974656D546F51E5
S3150200407075657565203D3D202828766F69642A2975
S31502004080302920292026262028207078517565752A
S31502004090652D3E75784974656D53697A6520213DB3
S315020040A02028205542617365547970655F74202912
S315020040B020305520292029007853697A65203D3D14
S315020040C02073697A656F6628205443425F742029FB
S315020040D0002820707854696D65722D3E7854696D9A
S315020040E06572506572696F64496E5469636B7320B9
S315020040F03E2030202900D4D4000000000100000038
S3150200410000000000030000000000000004000000A0
S31502004110004000000600000000000000070000004A
S315020041200040000009000000004000000A000000F4
S31502004130000000000E000000000000000F0000005A
S315020041400000010501010000000001050201000056
S31502004150000000000501000000000000060100004A
S315020041600400000007010000000000000C0100002E
S31502004170000000000D010000000000000E0100001A
S31502004180000000000302000000000000040200001C
S315020041900000010008020000000001000902000000
S315020041A0000001000A020000000001000B020000EC
S315020041B000000000000300000000000002030000EF
S315020041C000000000030300000000000009030000D5
S315020041D0000000000A030000000000000B030000BC
S315020041E00000010F000400000000010F010400009E
S315020041F004000000040400000000010F0504000092
S315020042000000010F0604000004000000080400007C
S315020042100000000004060000000000000506000081
S315020042200000000009060000000000000A06000067
S31502004230000000000B060000000000000C06000053
S31502004240000000000E0600000000010F000700003B
S315020042500000010F010700000000010F0207000025
S315020042600000010F030700000000010F080700000D
S315020042700000010F090700000000010F0A070000F5
S315020042800000000001080000000000000208000013
S3150200429000000000030800000000000004080000FF
S315020042A0000000000908000036000000F840000285
S315020042B000000000020403040404D4D400000080B9
S315020042C0000000800000062200000622070000000F
S315020042D0E44200020D000000384300020200000022
S315020042E0BC420002000000800000008000010008BD
S315020042F000000080000000800001000800000000AD
S31502004300000000000100000500000020000000205F
S31502004310010000040000062200000622000000033D
S3150200432030040622640C062200000003640C0622F6
S31502004330640C0622000000030000008000000080DA
S3150200434000000090000109080000008000000080C3
S315020043500000002700010208000000800000008023
S3150200436040000002000101080000000000000000F9
S315020043700000009001010905000000000000000095
S3150200438000000027010002050000000000000000F6
S31502004390400000020100010500000020000000208C
S315020043A00000009001010904000000200000002026
S315020043B00000002701000204000000200000002087
S315020043C0400000020100010400000622000006224D
S315020043D000000090000109030000062200000622E8
S315020043E00000002700000203000006220000062249
S315020043F04000000200000103640C0622640C06223F
S315020044004000000200000103000001000200080053
S3150200441010002000040408040200000014440002F4
S315020044200400000000000206362E322E30004275CD
S31502004430696C7420776974682052656E657361735E
S3150200444020416476616E63656420466C65786962B4
S315020044506C6520536F667477617265205061636B79
S315020044606167652076657273696F6E20362E322E0D
S30702004470300012
S3090300A100FFFFFFFF56
S3090300A104FFFFFFFF52
S3090300A200FFF5FFFD61
S3090300A28000000000D1
S705020012677F
